:400000000040002011000000B1050000B105000010B500F0D5FAC04670B512222E4B1A6001F0A2FC2D4801F06FFE012001F0BCFC302001F0B1FB2A4A2A4B1A602A4C802576
:40004000ED052560294A116802230B431360284A284B1A600022284B1A60284A136808218B431360FA20C00001F04AFC244801F03DFC244A244B1A60244B254A1A60A0215B
:400080004901244A1160244A1A60FE22120223490A602349196023490A60234A1A6082221206224B1A608022D202214B1A604322204B1A60013A204B1A60023A1F4B1A60FA
:4000C00001321F4B1A601F49082001F0BFFB082001F09CFB256070BD30001040001BB7000600008004010B400C020B4078002E402D3E00007C002E4064F02E406CF02E4004
:40010000DC050000007FBB000C0301400000014043FF00800803014042FF00800003014040FF00800403014041FF008008010B4000010B402C01014018010140140101407B
:4001400010010140C11A000010B572B60022324B1A6000240FE031486200131959000B00411889881A5AC31858880004104300F0EBF90134E4B2012CEDD928490C3128482E
:400180003C3000F0C7F98022D202264B1A60EE221206254B1A60C0229205244B1A6099231B04234A1360234A1360234A136080221206224B1A6022490B783C2293431422DA
:4001C0001343DBB20B701F4A117816230B43DBB21370D82212041C4B1A607E221B4B1A60C02252031A4B1A603E221A4B1A604232194B1A60C0221204184B1A600822184B9E
:400200001A600123174A1360174A1360FFF704FF00F0B0F910BDC0466CF02E40603F0100E03F010014000B40000002400003024000500F4020500F4030500F4038500F409F
:4002400001700F4000700F4008000440000204400802044018020440000304400803044018030440000404401804044010B5064C2378002B07D1054B002B02D0044800E0F6
:4002800000BF0123237010BDD8100020000000005C3F0100084B10B5002B03D00749084800E000BF07480368002B00D110BD064B002BFBD09847F9E700000000DC1000206D
:4002C0005C3F0100A00B00200000000000B585B00F4B1B78022B18D101A8133303810D4B01930D4B1B78838000230C4A00210FF093FA0B4B1B68002B07D0084A13785078B7
:400300000002184301A90EF033F805B000BDC0469E230020F4100020A40B0020A4230020E022002000B585B000F0A0F9434243416A46D3700332084B1B78022B0AD101A8FD
:400340000C3303810192012383800023034A00210FF062FA05B000BD9E230020A423002000B585B0134B1B78022B20D101A80F330381114B023301930223838000230F4AA9
:4003800000210FF049FA0E4B1B68002B0CD00A4B5A889B889A4207D0084A137850780002184301A90DF0E4FF034B5A889A8005B000BDC0469E230020A40B0020A423002005
:4003C000E022002070B50C00282808D002D8012805D05BE041280BD04C2812D056E000222B4B1A60002000F0F7FE01F071F94DE0FFF798FFFFF7B4FFFFF768FF01F006F97D
:4004000044E08B890E2B15D1081D3233214A00210FF002FA00280DD163681B7858425841C0B200F017F91B4A13785078000218430DF0EAFFA389122B12D1164D201D2E3303
:400440002A0000210FF0E8F963681B78012213400F4A13602B786878000218430DF0D4FFA389172B12D10B4D201D29332A0000210FF0D2F963681B7801221340044A136015
:400480002B786878000218430DF0BEFF70BDC046E0220020A423002010B562B600F026FB00F072FB174800F03FFE01F0F5FB01F003FC00F041F900281ED100F0B5FC124B7F
:4004C00058800022114B1A8008E0002001F0FEFB0F4B18550D4A1388013313800A4B1B780A4A1488A342F0D800F08CFC00F058FAFFF736FFFFF7EAFE02F08AF8032002F0C9
:400500007FF8D6E7C5030000A40B0020E4220020F4100020F0B50025002711E0BB00C658F3B2FF22964308E06A008A181478A419527822700135013BDBB2002BF4D101378C
:40054000052FEBD9F0BDC04610B50A00002102F023F810BD064B1B68002803D080221206134301E05B005B08014A13607047C04680033A4010B50323084A1360084A13609B
:4005800080221206074B1A600822074B1A600022064B1A600120FFF7DDFF10BD300030403000314000003A4000033A40000E3F4010B501F0ADFF03680C2B00D1FEE7FEE7AE
:4005C00070B50F4E0F4D13E029686B68AC68002202E001C901C30432A242FAD1E868002202E0002102C304328242FAD11035013E002EE9D101F092FFFFF74EFFFEE7C04620
:4006000001000000A443010010B50E4A136801218B43136000230AE0032B03D89A000A49505800E009489900094A885001332F2BF2D9FFF789FD034A116801230B431360B6
:4006400010BDC0460000104000000000B10500000000002004490A68D2B240239A438001184010430860704700020440024B186880090123184070470402044070B5154C14
:400680002368DBB2144A13700F2083431900134D2B780F2213400B43E13293432A788243134323600E4A0F4B1A600F4A0F4B1A600F490B688343062213430B60013001F040
:4006C000AFF80C49102001F0C1F80321102001F0CFF870BD00FF2840F522002062F1FF0F00020001080028400008A0010400284000040240A50E000010B501F031F801F09B
:4007000005F80021002001F00DF80021002001F033F8FF2000F0ECFF402001F013F8044A136804490B431360102001F06FF810BD0400284000100880024B18780123184049
:400740007047C0461C1100204000024B181880887047C0461C110020F8B5104F3E5C3818037A5D005D19EDB29B00DCB201F0D5FAB300FB181E6932680F21A1408A431100FC
:400780000422A2400A43DC6A23680721A9408B432360326001F0C5FAF8BDC04634400100F8B5194A145C13181F7AB900C9B27D007D19EDB2154B185CA300D3181E69336891
:4007C0000F228A4093433360022800D10020012801D1002600E0062601F09FFAA4000A4B1C19E16A0B680722AA4093431A003300AB4013430B6001F094FAA16C0B680122D3
:40080000BA4093430B60F8BD344001000023002010B5002403E02000FFF7C2FF0134042CF9D910BD044A11684002C023DB001840084310607047C04604002840CA0807236A
:400840001940063B8B40825C134201D0012000E00020704710B504000134E4B2052C06D0210004480430FFF7E9FF0028F4D0200010BDC046AC0B0020F8B50400324B1B1806
:4008800064229B5C9B00314A9D5801003048FFF7D5FF304B9D4203D88540FF231B041D4300F05EFF00F032FF2B4B185D013880B2002100F037FF294B185D013880B2002152
:4008C00000F05AFFFF2000F013FF402000F03AFF102000F0A5FF80225202214B1A60204B1B681B0CFBD101221E4B1A60102000F0A1FF102000F08AFF102000F091FF1A4803
:4009000001681A4B19401A4B1B5D1A4A125D120413430B430360184F3E68184B1E40184B1E43102000F072FF2000FFF715FF01F0F4F904003E60002001F0E6F9084B1D6036
:40094000200001F0EEF9F8BD34400100AC0B0020F4220020FFFFFEFF08230020102300200C002840140028400800284000FF80FFEC220020F822002004002840FF1FDFFF01
:4009800020E0200010B5054B00221A70C2B29A7381221A70FFF770FF10BDC0461C11002010B50C4C00232370FF33A373A07BC0B2FFF750FFA073A37BDBB2042B08D82178D0
:4009C00001230B43DBB22370A07BC0B2FFF754FF10BDC0461C11002070B50500184B1C68A4B24300174AD3189C80174B1B1864229B5C9B00154A9A58154B9A4208D8010042
:400A00001448FFF71BFF6B000E4AD31804419C802800FFF7C5FE102000F002FF0E4A11680E4B0B40A02109020B4313600C4A11680C4B0B401360102000F0E8FE70BDC0461A
:400A40000C0028401C11002034400100AC0B0020FFFFFEFFF422002004002840FF1FDFFF0800284000FF80FF10B5CC0807231940063B8B40DBB2002A04D004192278134322
:400A8000237003E0041922789A43227010BDC04670B50600002400250BE03000FFF772FFFFF74AFE0128FBD03000FFF74DFE24180135002DF1D0A0B270BDC046014B195490
:400AC0007047C0460023002010B5002404E000212000FFF7F3FF0134042CF8D9FFF7CEFD0020FFF79FFEFFF793FE10BD10B50B4BDB7B002B04D1FFF7E7FF0122074BDA73F3
:400B0000FFF7FAFD00F094FA0122044B1A74044A13688021C9030B43136010BD1C11002004002840F0B5002714E00C4BDE5D0C4BDB5DF6181A00002404E08D5CAC4200D213
:400B40002C000132B242F8D301E0CC540133B342FBD301378742E8D3F0BDC046B4400100B84001004300054A9A5A05495A52081800210173017503495A5270472011002057
:400B8000301100201C23002010B5FFF709FFFFF7D3FD0028FBD1002409E021000548FFF74DFE002802D02000FFF7DCFF0134042CF3D910BDB00B002070B5094D14352D186F
:400BC0000026FF20002308E0EC5C944203D9A64201D2260018000133DBB28B42F4D370BD30110020F0B583B004000192009308AB1878344B14335918002C02D0661EF6B229
:400C000000E00026631CDDB20B5D9C462D4B243362465A70002C07D12A4B002624229E544A5D24339A7012E0019A013A944207D1895D244B24229954243300229A7006E0CF
:400C40008E5D204B24229E544A5D24339A7024231C4AD35C834204D91B1A242219498B5403E000212423174AD154164A243253781B1ADBB253709278904204D2101A114A96
:400C80002432907003E000210E4A243291700D490A00243292782420095C501AC9188918000201F049FB240200196B4600255D5F6843FE23DB019C466044000CC0B203B06F
:400CC000F0BDC04630110020401849004018800880B27047F0B5474680B482B004003C4B1E5C3C4B9B5D019342003B4BD75A3B4B5B7A002B08D03A4D9046515B3800FFF738
:400D0000E3FF070043465853E1B2334A354801F0CBF86300344A9A5A974207D30021334B1955BD1AADB20123984603E0D51BADB2002398464346002B15D12D4B9B5D9D426C
:400D400011D92A4B1B5D254A12191279934206D32000FFF707FF0022244B1A551EE00133224A13551AE06B469B889D4206D9204B9B5D9D4212D24346002B0FD113029C466A
:400D8000194801190B7B66463343FF18BF1A3A0A6300C2520F730022144B1A556B469E88B5420DD94346002B0AD0FF2D04D90E4B1C19FF23237507E00B4B1C19257503E071
:400DC000094B1C190023237502B004BC9046F0BD984001002C23002020110020C80B00201C2300204823002030110020342300203023002010B5040000F0A2F82000FFF790
:400E000069FF10BD10B5002409E021000548FFF715FD002802D02000FFF7ECFF0134042CF3D910BDB00B002030B583B00400194B1B181D7B184B1A5C05210020FFF7BCFE47
:400E4000FF281FD0154B1B5D0093C8235B0105220021FFF7C7FE010080B26B1CDBB20D4A5219127B002A06D10A4AD3181973551901232B730BE0074CE418217BFFF724FF26
:400E8000207304E0034B5D1900232B73044803B030BDC046C80B0020182300202C230020FFFF000010B5102000F0BAFC01221E4B1A601E4B1878C0B2FFF78EFD1C4B1B7802
:400EC0005BB2002B05DA1A4A137801218B43137026E0164C2078C0B2FFF7BCFC20702378DBB2042B05D8114B1878C0B2FFF7C4FC16E00F4B1A7801218A431A701B785B0632
:400F00000ED500220B4B1A7006E00B4AD15C0B4AD1540133074A1370064B1B78002BF4D0102000F073FC10BD140028402A1100201C11002057110020E8220020B00B002002
:400F400070B582B0154B1C5C154EC1B2154D009533002200144801F025F8335D295D134A1155DB2B03D8DB08114A135514E0EC2B03D81B090E4A13550EE0F42B03D85B0940
:400F80000B4A135508E0F92B03D89B09084A135502E00022064B1A5502B070BD98400100182300202C230020482300203023002028230020024A136840218B431360704760
:400FC00004002840044A1168044B0B40802189000B4313607047C04608002840FFFCFFFC70B5002208E00D498B5C5D080C4CA55401335B088B54013203789A42F3D31020FE
:4010000000F00EFC074A1168074B0B4007490B431360102000F0FAFB70BDC046EC220020F822002008002840FFFCFFFC0002000170B5254B05221A70012159709A702B328D
:40104000DA80224A9A80224A9A60FFF7B3FF002304E099001F48204A885001331A4A52789342F6D3002306E010211C4AD1540C391B4AD1540133042BF6D9FFF7A3FF194E74
:40108000114C3100200000F06FFE174D29000120FFF748FD200000F078FE3100200000F063FE29000120FFF73DFD200000F08EFE2000FFF795FF002403E02000FFF740FFF8
:4010C0000134042CF9D970BD4823002098090000BC4001000000FF0FAC0B002010230020082300209A0D0000EC22002010B500F081FA10BD10B50024064B1C70064B1C706B
:40110000064B1C70FFF7F2FF054B1C70054B1C7010BDC046A7230020A0230020A62300208C2300209423002010B590B00400142220490BA801F027FA20231F4AD35C002B91
:4011400005D1FFF7D7FF012120231B4AD154002C2DD01A4B1C6008A805AA426006AB0893002101811B311980598017391971002313701231694401F027FB002818D1104B37
:401180000293104B0193052300930BABAE2212010D490E4801F06EFA002809D101220C4B1A700E3217210B480EF01EFB00E0012010B010BD28410100581100209023002016
:4011C00079020000004C0100C0000020351300009E2300203C41010010B502282FD81C4B1B78042B2DD11B4B1B785B072CD4002809D1194B00221A862032596A0A805B6A9C
:4012000010325A800CE001280AD1134B96221A86C822D200596A0A805B6A8022D2015A800E4B18700C4820300BF002FF00280DD1084A117804230B43DBB2137006E00120E1
:4012400004E00420FF3001E00420FF3010BDC0469E230020A7230020E00B0020A62300207047C04603784078000218437047C04670B5050083890B2B1FD1043035332A0045
:4012800000210EF0C9FA041E11D16868FFF7EAFF830706D50A4B1B68290082204000984705E0074B1B6829000620FF309847054A137801218B43137000E00024200070BDBD
:4012C00090230020A7230020024B00225A701A707047C046A423002010B582B00400FFF7C7FF0A4B1B78DB070ED4002809D001A912238B70A3890B80C87020680CF0FAFF20
:4013000002E020680DF080F802B010BDA72300208379002B07D000200BE0C25C002A07D10133DBB200E00023052BF6D9002000E001207047F0B583B004000D009A4A11784B
:4013400001230B43DBB21370272800D1BFE012D8062800D183E004D8012821D005287AD010E1242800D1AEE0262800D1B7E0212800D007E187E0422800D1EFE006D8282881
:4013800000D1A8E0412800D1D1E0FBE04C2800D1EFE0FA2800D1F0E0432800D0F2E0E0E001AE0727377000237370300003F07EF9377001237370300003F078F97B4B1E68B8
:4013C0003000FFF7A5FF00280CD0300001F024F9764E00213068FFF743FF30680121FFF73FFF2AE0724B1F78724B18788001FC263601020032403F21394011436E4B1B78CC
:401400001B03F8225202134019436C4B1B785B04FE22120413400B43694E33701A0A72701B0CB370300001F0F7F800213000FFF717FF01213000FFF713FF00200BF09CFCCD
:4014400001A83F230370002343700BF0B3FC04225C4B1A7096E02A785B4B1A7092E02B78002B00D08EE06B78002B06D1574B0022DA809A80564A1A606B604B4A137801210D
:401480008B4313707EE0484B1B789B067AD4514B1B78102B02D105224E4BDA704E4B18784C490BF087FD01AB1880002804D04B4B1B6801A9362098473B4A117801230B432C
:4014C000DBB213705EE06A78454B1A705AE002223C4B1A7056E004223A4B1A7052E0394B1B78022B4ED0304A1278D2074AD52E4A1278520708D50322324B1A702A4A1378D5
:4015000004218B4313703DE0274A1278120708D504222C4B1A70244A137808218B43137030E0032B2ED10422264B1A702AE02A4E02222900300001F026F80022224B1A7008
:4015400033785A00D21853002649C918264B9C4661440622254801F016F813E0FFF7B4FE10E06988162900D9172128880CF0CCFE08E02800FFF7B0FE04E01D4A117801235F
:401580000B431370084B1A7811231A4209D0064A137801218B431370104B1B6829002000984703B0F0BDC046A7230020140C00207CF1FF0F7DF1FF0F7BF1FF0F78F1FF0F40
:4015C000180C00209E230020A02300207C110020A00B0020F80C0020A42300209023002094230020004C010079020000982300208C2300207047C046034A117880235B4271
:401600000B43DBB21370704772000F40024A11787F230B401370704772000F40014B18707047C04602000F40014B18707047C04642000F40014B18707047C04622000F4011
:40164000014B18707047C04682000F40014B1878C0B2704762000F40014B1878C0B2704752000F4010B501E0FFF7F6FFFFF7EEFFC306F9D410BDC04610B513490B783F22CA
:40168000934309221343DBB20B70104C227801231343DBB22370FF20FFF7C0FFFF20FFF7C3FF7D20FFF7C6FF0020FFF7C9FF00F034FB227810231343DBB2237000F031FBDC
:4016C000FFF7D0FF10BDC04672000F4092000F4010B5064B1B78002B04D1FFF7CDFF0122024B1A70FFF788FF10BDC04684110020044B1B68002BFBDB0002034B1843014B7C
:40170000186070470000014040000080034B1B68002BFBDB024A014B1A607047000001404000004010B5064A13680724234000021843CB00FF2119400143116010BDC046D6
:4017400000030140044B1B68002BFBDB0002034B1843014B186070470000014041000080034B1B68002BFBDB024A014B1A607047000001404100004010B5064A1368072412
:40178000234000021843CB00FF2119400143116010BDC0460403014010B586B0040000F0BCFA0E4B1B6800930D4B1B680193033C0C4B1B5D02930C4B1B68039304AA0B4BBB
:4017C00004936B4605930A4B1A600A490A4A11601B6800F0A6FA06B010BDC04608010B4000010B405043010030001040B6EA0000080010401700008004001040024B1B681F
:40180000012018407047C0460C002E401F2318401E3B8340014A13607047C04600E100E01F2318401E3B8340014A13607047C04680E100E01F2318401E3B8340014A136020
:401840007047C04680E200E001BE704770B504000D001F2802D90020FFF7F6FF1034A40080239B059C4664442068256070BDC04670B504000E00032902D90020FFF7E4FF64
:401880001F2C02D90020FFF7DFFF03252540ED00063500F042FAA408A400074B9C46644421680323AB4099430B003100A9401943216000F036FA70BD00E400E010B50400AF
:4018C00006E0084B586800F01FFA074B9C46644480231B029C42F4D8024B9868604300F013FA10BD000D00200080FFFF10B5034B1B7B584300F008FA10BDC046000D002005
:4019000010B504000F4A116801230B4313600E4A0E4B1A600E4A1368802109020B431360002809D100200CE00120FFF7DFFFFFF765FF002804D1013C002CF5D1102000E023
:40194000002010BD60F02E400220000078002E4010002E40034B1868C0231B02184000D00120704700010B4010B50D4B1A6801218A431A601A68022082431A60094A106866
:401980003024A043203C204310601068093CA043014311601A68802109060A431A6010BD00F02E4000FF2E4070B51D4B1B6801241C40002802D0012816D02BE0184B196852
:4019C0000122914319601968022081431960154B19682E3081432038014319601968093881430A431A6018E00D4B1A6802218A431A600C4A10680725A843014311601168E3
:401A000030208143103801431160196801220A431A6002E00020FFF717FF200070BDC04600F02E4000FF2E4010B500F076F9044A1368C02109020B43136000F072F910BD3C
:401A400000010B4010B500F068F908490A68084B1A408024E40122430A600A6813408022120213430B6000F05CF910BD00010B40FF3FFFFF70B5050000F04FF90400FFF70A
:401A800069FF002803D0FFF7DDFF012100E0002108482840084A1568084B2B40184310601368012901D1FFF7BFFF200000F039F970BDC0460404040010020B40FBFBFBFFC5
:401AC00010B5244B1B685B0715D5234B5B685B070ED5224B596A042001401F4C62688A4362605A6A82435A629B69002B00D098470420FFF7BFFF174B1B685B0518D5164B86
:401B00005B685B0510D5154B596A8022D2001140114842688A434260596A114A0A405A62DB69002B00D098478020C000FFF7A2FF084B1B685B030CD5074B5B685B0304D5A9
:401B4000064B1B6A002B00D098478020C002FFF791FF10BD10020B40140D002088110020FFFBFFFF10B503210F20FFF781FE25490F20FFF76BFE0122234B1A60234B1B682C
:401B8000002B01DA224900E02249234A13680B431360224A224B1A60224A234B1A600023224A1360224A23490A6023490A6023490A688020400202430A60214A1360214A47
:401BC00013600122204B1A60204A1168204B0B40802189050B43136002221E4B1A6000230DE09A001C495118802080000860580000241A4944521A481A4950500133002BA1
:401C0000EFD010BDF91C000020003A4080033A40C0021051C002005100003A408C00008004003A400000FF0718003A401C003A400400040010003A4014003A4000033A4067
:401C400028023A4038023A4018023A4030003A40FEFFFFDF040F3A4080003A40AC230020E2040000A823002010B5094B1B68002B0CDB084B1B68002BFBDB054A13688021BC
:401C800009060B4313600A20FFF730FE10BDC04600003A4008023A4010B5064B1B78002B04D1FFF75FFF0122024B1A70FFF7DCFF10BDC046B0110020034A13688021490205
:401CC0000B4313607047C04604003A4010B5041E02D00020FFF7B8FD002C07D1A400054B9C46644420680004000C00E0002000B210BDC04680013A40014B1A681A607047CB
:401D000010023A40000000000230800803D00138FDD1C046C046C0467047EFF3108072B6704780F310887047F7B59C180023071C08268025019100922370237800982B43D6
:401D40002370BB689B6C9847019B984202D22378AB432370013E6D08002EEED12378F82B01D9F8232370F7BD70B5051C0E1C00242B789C4208D2AB68221C281C311C1B6872
:401D8000FFF7D2FF0134F3E770BD38B5051C00242B789C4219D2AA6813681B5DDB080F2B00D90F23D16BD268C95C1155AA68042B04D9936D906B211C012203E0936D906BFD
:401DC000211C002298470134E2E738BDF0B5041C002687B063789E4262D2A3685A6C925D0392002A01D1013203921A6C925D019201992278914251D29A689B69515C0F2272
:401E00001140B2000492002205910499019D5A50019B5B000293039B019A9B189D423DD2A768E388A0885843FB68595D00F084FA3B68595D00F0F6F9059B5843194B40002B
:401E40005A2802D95B084008FAE7BA6904991B0C1B045350A36882085B6B01215855A368C008DB69029F5A550F22A36849421B6A5855A3685B6A5A55A368986AC153002185
:401E8000D86AC153186B9B68C1535B19197801350A401A703B1C02330293BCE7013699E707B0F0BD0000FFFFF0B585684E002B6B925B9B191C8887B0141B0094AC6A1A80E1
:401EC000A45B6B6A0294EC6A5F5CA45B2B6A03946C6B7F00645C5B180494AC680193645C1B780594009CE40FA4460F24251C6744009C3D40AC46E51764196C409C4203D20C
:401F0000012B05D0013B00E00133FF273F2B00D89F00019D2B7065460F2D29D0002D24D0BC4225D8059C029F24090094974200D9171C039D954200D2151C009A092A01D80C
:401F4000141C01343A1C0A2C14D1EA1B934206D9049A92089A42924152429B1A00E001338268D26953543A1C04E0151C644601E0151C00246746836824015B6A5F54836857
:401F80009F6ABA53DA6A9B6895530F225B181D782A401A7083689B6859180B781C430C7007B0F0BD70B58068446BC069655C405CFF213F2801D88100C9B246B2FF24002EA7
:401FC00001DB4000C4B28D4201D9291C6C08012081439954049B9C5470BD00000160704701607047324B1A781202324B1B781A43314B1B781B02314909780B4330498B42E4
:4020000001D1072A06D0D42109018B4206D1042A04D102E02B4B042200E02A4B2A490B602A4B1A602A4B1B781B022A4A1278134380229201934202D0002B02D002E0264BDC
:4020400000E0254B254A1360254B1B781B02254A12781343244A934205D0244A934204D0052B05D103E0224B02E0214B00E0204B204A1360204B1B681B09204A1268AA2AFA
:4020800015D1012B13D9164B1B780E2B0FD11C4B1B781B021B4A127813431B4A13601B4B1B781B021A4A127813431A4A13607047D9F0FF0FD8F0FF0FDFF0FF0FDEF0FF0F93
:4020C000580B0000580D00006C002E4074002E40DBF0FF0FDAF0FF0F0220000078002E40DDF0FF0FDCF0FF0F0F0F000005050000050F000080002E40EC0F00F0E00F00F0FA
:402100006DF2FF0F6CF2FF0F84002E406FF2FF0F6EF2FF0F94002E4010B5FFF7E7FB10BD10B5FFF7CBFB10BD10B500F04BF810BD10B500F04FF810BD10B500F04BF803486C
:4021400000F02AF8032000F02DF810BD1D22000010B5024800F046F810BDC0461D2200000220FF307047C0462B2070472B2070472B2070472B2070472B2070472B207047A0
:402180002B2070472B2070472B2070472B2070472B2070477047C046014B18677047C0460000002010B50400FFF7B7FD044A1368C0218B43A4011C431460FFF7B2FD10BDDB
:4021C0000CE400E080225201014B1A607047C04600E100E080225201014B1A607047C04680E100E010B50400FFF7F4FF2000FFF7D3FF0320FFF7D6FFFFF7E4FF10BDC046E9
:4022000010B5FFF78AFD044A136804218B43136030BFFFF786FD10BD10ED00E010B511F089FE10BD002243088B4274D303098B425FD3030A8B4244D3030B8B4228D3030C9F
:402240008B420DD3FF22090212BA030C8B4202D31212090265D0030B8B4219D300E0090AC30B8B4201D3CB03C01A5241830B8B4201D38B03C01A5241430B8B4201D34B03D9
:40228000C01A5241030B8B4201D30B03C01A5241C30A8B4201D3CB02C01A5241830A8B4201D38B02C01A5241430A8B4201D34B02C01A5241030A8B4201D30B02C01A5241E7
:4022C000CDD2C3098B4201D3CB01C01A524183098B4201D38B01C01A524143098B4201D34B01C01A524103098B4201D30B01C01A5241C3088B4201D3CB00C01A5241830878
:402300008B4201D38B00C01A524143088B4201D34B00C01A5241411A00D20146524110467047FFE701B5002000F0F0F802BDC0460029F7D076E7704703460B437FD40022E3
:4023400043088B4274D303098B425FD3030A8B4244D3030B8B4228D3030C8B420DD3FF22090212BA030C8B4202D31212090265D0030B8B4219D300E0090AC30B8B4201D33A
:40238000CB03C01A5241830B8B4201D38B03C01A5241430B8B4201D34B03C01A5241030B8B4201D30B03C01A5241C30A8B4201D3CB02C01A5241830A8B4201D38B02C01AA7
:4023C0005241430A8B4201D34B02C01A5241030A8B4201D30B02C01A5241CDD2C3098B4201D3CB01C01A524183098B4201D38B01C01A524143098B4201D34B01C01A524169
:4024000003098B4201D30B01C01A5241C3088B4201D3CB00C01A524183088B4201D38B00C01A524143088B4201D34B00C01A5241411A00D201465241104670475DE0CA0FE0
:4024400000D04942031000D34042534000229C4603098B422DD3030A8B4212D3FC22890112BA030A8B420CD3890192118B4208D3890192118B4204D389013AD0921100E080
:402480008909C3098B4201D3CB01C01A524183098B4201D38B01C01A524143098B4201D34B01C01A524103098B4201D30B01C01A5241C3088B4201D3CB00C01A52418308C3
:4024C0008B4201D38B00C01A5241D9D243088B4201D34B00C01A5241411A00D20146634652415B10104601D34042002B00D54942704763465B1000D3404201B5002000F0BC
:4025000005F802BD0029F8D016E770477047C046014B18687047C046D41000200E4B70B500251E000D4CE41AA410A54204D0AB00F35898470135F8E711F022FF084B0025E5
:402540001E00084CE41AA410A54204D0AB00F35898470135F8E770BD8C4301008C4301008C4301009443010030B50024A24208D0035D651C0C5DA34201D0181B02E02C0017
:40258000F4E7002030BD002310B59A4203D0CC5CC4540133F9E710BD03008218934202D019700133FAE77047134A1088810703D08107890F401A001D11791030484381B273
:4025C0005088820703D08207920F801A001D800040180A494030098980B2CA0701D0503080B2890706D504495422091F09785143081880B270470000220D0020C01100205F
:4026000010B501F05BFF10BD10B501F06DFF10BD10B500F05BFA10BD10B50749044609780220002907D1204601F0B6FF002802D120460AF0A5FC10BDC00E002070B50446C2
:402640000120002C12D02368002B0FD0616800290CD0074D06222889208118462968FFF792FF6968606809780170002070BD0000C0110020FFB585B0002768460E9D0773D8
:402680004F481C460078002802D0082009B0F0BD10990F9801900095029105A807C800F007F90028F2D16946264603AB84460873002C19D0002115E08A00B75A082F09D9D4
:4026C00090198078002805D0083FB7521878401C187005E0002914D00027B75290198770491CC9B2A942E7D360460028CED10F98002809D0109901F091FA002804D00120DA
:40270000C4E701208446EFE701F0EEFE2D480021416081600599016021888180022D07D3A1798171A17AC171A1890181218A418100211EE0481C19E082008B00A75AE65A4A
:40274000BE46BE4211D26F463E80B4461E190296B678BE7001967646E6521719029EBB78B3706646A652019EBE70401CA842E3D3491CA942DED3134822460C30009068467E
:40278000037B0799069800F01BF90028B8D168460B4C007B60700B480C3001F0D5FE0028AED1084907480C3107F0C0FC0028A7D107F0DAFC0028A3D10121217066E70000C5
:4027C0001C0D0020B4110020F8B5054636480F460078002802D002242046F8BD002F60D000243249002D16D02A89D0070DD02868002808D003881B3BE12B04D24088FB2877
:4028000001D81B2801D2012409E0900707D56868002804D1F7E70020088108604860002CDAD122482E8906811F481B21801D01804180042101711C490020891C0870F00793
:4028400005D019480622801D2968FFF79CFE1749B00703D56A68144812788270124D0E46AD1D281F0D60486001F0BCFE284601F0ABFE30890EF0E0F830890DF0C9FA28885F
:402880000DF0CCFA30890EF041FA03461033FFF78BFE1F21C018890140183880A91F88809AE7012498E700001C0D0020C0110020FFB58446384F1C460020BB883F780546AB
:4028C00002460646002F11D100290ED0029999420BD36146002908D0002C06D00A99002906D02E4B0B99994202D2012004B0F0BD002144E0AB001F19BF78002F3BD0E35A68
:40290000002B38D07B43591889B22B0000F04AF8050410161C253100A7782388BC46FF27233BEB37BB4222D26346032B1FD322E0A388002B1FD0302B19D31CE02389002B6F
:4029400019D0282B13D316E0A289002A13D01346134F233BBB420AD20DE0268A002A0AD033460F4F233BBB4201D2964203D901200EE0002001E000280AD16D1CEDB2099BDC
:402980009D42B7D31C2463435B1802998B42ACD89642AAD8AAE700001C0D002079020000BAFF000030B47446641E2578641CAB4200D21D46635D5B00E31830BC1847000041
:4029C000FFB583B0002469460C801F4606468C80002806D00598002803D004983043800701D0012466E0002FFBD03449049809888842F6D3FFF7ACFBFFF79AFB00F012FC0F
:402A0000002855D100F07AFD002851D12C49084601F038F905042D0C4AD12A480499066081800021C18007810C98007AC00704D0684601F072FD040007D10C98007A8007AD
:402A400003D501A801F072FD0446BF1DFEB2002C20D13146059800F05DF804001AD10EF063F9040016D16A461088928808368518144AF1B29088D288AEB29319984207D385
:402A8000401B801A80B201F0EDFB050007D000E0FF25012400F05EFA002D04D008E0F8B200F01CF9F6E700F081FA07490120087000F0CAFB204607B0F0BD0000200D002034
:402AC000012C0000CC110020280D002010B503480078012801D101F067FA10BD280D002070B5084B0446DA889E8803205518B54206D8186880182060D8884018D8800020E9
:402B000070BD0000CC1100200148008970470000CC110020F0B587B007460D4600208900009006916846FFF7DBFF844600285DD1304800990160002117E02E4B88001A68EE
:402B40000629115406D22C4C0419667882185670628805E0C419203CA67A8218567022891B68C018491C4280C9B2A942E5D300242DE0601CC2B2059025E01E4FA3003968D7
:402B80009600581840887118039604904E88B04217D938466F46FE80B6464F786E4677710297049F4F800168039F5E18767879184E700168764659184E800068029F181863
:402BC0004770521CD2B2AA42D7D30598C4B2AC42CFD36046002809D168460699FFF780FF8446002802D1054900980860604607B0F0BD00002C0D0020B8430100300D0020BA
:402C00007047000010B5002809D005494A68002A05D0011F08788000105801F0D1FA10BD2C0D002010B50446FFF76EFFC0B2801DA0420CD307484068002808D0A10040583C
:402C400001F030FA002801D00470001D10BD002010BD00002C0D0020F8B516460D460446FFF752FFC0B2801DA04203D20020C0430090F8BDB2B2E9B2684601F039FA009917
:402C8000481C03D0024AA000526811500098F8BD2C0D0020F8B50746FFF736FF801DC6B20A49002005460C680DE06178002907D06188B94202D32078FFF7B4FF002804D107
:402CC000241D6D1CEDB2B542EFD3F8BD2C0D002010B5002801D0FFF795FF10BD70B506460948002504680BE06178002905D062882078121D0023FFF7AFFF241D6D1CEDB299
:402D0000B542F1D370BD00002C0D0020FFB581B00A9F16000C4620D000F0F2F8054604281BD0002F0CD03846FFF7B4FF20492A0151184860002810D03A460499FFF723FC1F
:402D40001B4928010E504618778101980570200406D47D20C000444304E0FF2005B0F0BD6404640C00F0BAF80746042807D000F04FFAA0420BD800F04BFA201A03E020463D
:402D800000F0AAFA0020F06035720020E6E700F03FFA009000F0B6FA00980121001B009000F0ECF802493A0151180098C860E6E7D8110020F8B5060116483418217A04293E
:402DC00003D0E068002802D017E00020F8BD00F01FFA054600F096FA00F0A0F804280CD001010C480F18F8680021451900F0C6F80020F860284600F06FFA6068054D002803
:402E000001D0FFF765FF042020720020A8516081E060DAE7D8110020FEB500266A46304601232549050169180D7A042D02D0C96800291BD000211154401CC0B20428F0D383
:402E400000246846005D002830D01B48210108184189476805680291002101604160042241810272C160002E02D015E01354E3E700F054F804280ED001010F4808180190C7
:402E8000C6680021304600F079F801980021C160304600F021FA0126002D07D038460299A847002F02D03846FFF712FF641CE4B2042CC6D3FEBD0000D81100200EB5002051
:402EC00005216A460090118150810348694600680EF08FFD0EBD0000340D0020074A0020010189180B7A042B02D0C968002903D0401CC0B20428F3D370470000D8110020AA
:402F00000549002002015218127A042A03D0401CC0B20428F6D37047D811002030B50A4B04200A4C00210A011219157A042D06D0D268002A03D09A4201D808461346491C0D
:402F4000C9B20429EFD330BDFFFF0000D81100207047000030B50020074C05460423020111190B72A5504D60401C4D81C0B2CD600428F4D330BD0000D811002030B5094C3A
:402F800000231A011219157A042D04D0D568002906D02D18D5605B1CDBB2042BF1D330BD2D1AF7E7D8110020002070471CB5002469460C70142001902346054A05480EF08D
:402FC0001DFD04480068401C00D1FF2420461CBD29300000340D00203EB5124A0146FF2000230124126800290DD0012914D0042908D104206946009308814B8110460EF01A
:40300000F8FC80B23EBD6846009304814381694610460EF0E9FCF4E768460093048143816946EBE7340D002070B545890468416800890300FFF7B6FC08280509091E2228CB
:403040002628002005F024FF1EE0022908D0C8B22A4621460CF030FE2046FFF739FE13E002202A4621460CF027FE2946204600F00DF809E000200EF0BBF905E02046FFF7E8
:40308000CBFE01E0FFF786F8002070BD014B0022DB681847380D002070B5448905680089022803D0032809D0FF2070BD2246094C0023A46829460120A04708E0FFF7A4FA1C
:4030C000241DA2B200232946022006F0E2FE002070BD0000380D002070470000024800214160018041807047380D002070B50C46002186B016460391012802D0022859D1D1
:4031000016E003A9012006F019FF01281BD1039D324621462846FFF736FA0095287801900220694608814E816846FFF7B5FF41E0214D002B686809D0049004A9022006F093
:40314000FDFE01281DD0022006B070BD002812D0298840182146FFF716FA28880024801980B228806988091D884206D12C801348FFF792FF03E00320E6E788421AD96C60D0
:4031800018E004986860E278A378110219430B4A698000231060E3565360032313815181A1788170E178C1706178417021780170042028800020C7E7380D00201812002015
:4031C0003EB515460C46022803D004280CD000203EBD0091019002206946088107484A8100680EF006FC07E00CF066FD044B0022DB6829462046984701203EBD340D0020E6
:40320000380D0020014AD16090607047380D0020034801688068081A0A214843000970472412002010B5FEF787FF4C2204490548FFF7A9F903490120C870002010BD0000A5
:40324000D44301002816002010B5FEF76DFF10BD70B5134C2368002B08D0207B1149C20705D04008400020738868A08070BD88680B4AA18880B29268814203D90A4D691AD5
:40328000091802E0814202D2411A5118A160A080A0689842EAD30EF0C9FB00F013F870BD24120020C0102E40FFFF000010B508461946FFF7A7FF10BD704710B5FFF780FFA8
:4032C00010BD000003480021016041608160C1607047000024120020024610B5FF20002A0CD0FFF7EFFF064C0321207B0843207310010A21FFF71CF82060002010BD0000CC
:403300002412002000B504480A21806848430209FFF7D8FF104600BD241200200248007B8007C00F704700002412002010B54B490868002802DA4A4B01221A700222904329
:403340000860484800694549C00B4031096A0246C907C90F0A4259D0012000F0E5FA3F480E216C30FEF73CFE3E4820218430FEF737FE3C4814219C30FEF732FE3948FF21E9
:40338000C131A430FEF72CFE3648FF212F31B030FEF726FE33483449BC30FEF721FE31483249AC30FEF71CFE30492E48491CB430FEF716FE2B482E49B830FEF711FE2948D2
:4033C0002C49CC30FEF70CFE26482B490830FEF707FE24482949A830FEF702FE214828498830FEF7FDFD1F4826498C30FEF7F8FD1C481921C9029030FEF7F2FDFEF7F2FDB0
:40340000FEF7AEFEC0B2022812D01FE000290BD0002101420AD0114801216030FEF7E0FD0120FEF77DFE97E70121F2E7FF2010BD15491648FEF7D4FD14481549001DFEF70B
:40344000CFFD124800210830FEF7CAFD54200449C043891C0870002010BD000000F02E40480D002000002E40320300002F3F00003102000010520000EC160000FA120000BC
:4034800031D000003AE300009956000080012E40F80F000070B50646581C80B245086D00002408E0304600F0C1F81055000A1119A41C4870A4B2AC42F4D3D80705D0D01855
:4034C0002038D15CC47FD454C17770BD30B50A4C002100195B1E07E0541864782502545C2C430480891C89B29942F5DB994201D1515C018030BD000000102E4010B5FF20DB
:4035000000F012FA0F49FF2048700E481021801D41800121417001700A490020C91C4870FFF704FF04000AD100F02EF907210648FEF754FD044807211830FEF74FFD204619
:4035400010BD0000480D0020CC112E4070B5002405465B1E0AE0284600F068F8010A161971702D1D1055A41CADB2A4B29C42F2DB9C4203D1284600F059F8105570BD00002C
:4035800070B500210A4D5B1E0AE0541864782602545C344346193480001D891C80B289B29942F2DB994202D1515C4019018070BD00102E40F0B50599091FCFB200217E1E01
:4035C0000BE0541864782502545C2C43164D45192C80001D891C80B289B2B142F1DBFC0712D01C78515C24020F4A0C4381180C809C785D78001D210280B2294384182180DA
:40360000001D80B2D9780CE059781A7809021143054A84182180001DD9789B78090280B2194380180180F0BD00102E40014940180088704700102E4010B50B490020487002
:4036400000F0A2F8002000F095F9002000F082F907210648FEF7C2FC044807211830FEF7BDFC002010BD00004B0D0020CC112E4010B50C48007801280FD100F085FF00F056
:40368000DDF8002804D10848016A490849000162054802213030FEF7A3FC02490020C91E087010BD4B0D002040F02E4010B50B46062812D006DC01280CD0032801D1FFF76F
:4036C000BBFF10BD0A28FCD00B28FAD105480078107010BDFFF712FF10BD1146184600F065F910BD4E0D0020F8B5244DAC6A0127A007234E002816DA307806280ED1286A43
:40370000384328621F480069F903084381B21D481030FEF765FC042000F006F9174802212830FEF75BFCE00718D000F067FF01280FD1002000F0B4FF062000F0F5F81049B9
:40374000FF20C91E48707078002802D1686B384368630A4801212830FEF740FCE0050BD53078042802D1052000F0DEF80348FF2101312830FEF732FCF8BD000040F02E40D0
:403780004B0D002000002E4010B503212348FEF727FC0120FEF7C0FC20483038406A204C80076178800F890001431C480C38FEF717FC6078002808D0401E02218140182041
:4037C000FEF7A0FEC000083800E0B82081B21548FEF706FC1348032109021438FEF700FC10481149B830FEF7FBFB612189010F48FEF7F6FB0D480321001FFEF7F1FB0C4994
:403800000C48FEF7EDFB0B480B496038FEF7E8FB084801218838FEF7E3FB10BD70F02E404E0D0020D8102E4090890000041E2E40FF0F000058122E40209000000449012022
:4038400009684907490F022900D000207047000000010B4000B5FFF7F1FF002805D009480168C908C900016000BD0748016A490849000162054801690122D203914301616B
:4038800000BD000000010B4040F02E4000002E400848017806290BD140780749002803D1486B400840004863C86A01221043C862704700004B0D002040F02E4001480078D5
:4038C000704700004B0D002000B50300FFF76AF8080D050D0B070507090D012000BD032000BD042000BD022000BDFF2000BD0000074A9168D26889B2064B92B2994204D1D0
:4039000005498A4201D1012100E000210170704780002E4033D000003FE3000001494870704700004B0D002010B50446FEF700FC072C01D9FF2C01D102480470FEF7F4FB60
:4039400010BD00004B0D00200149487070470000480D002010B5064A012805D01921C9021046FEF73DFB10BD1D21C902F8E7000090002E4010B50A4A141D012808D00949E9
:403980001046FEF72DFB08492046FEF729FB10BD04491046891CFEF723FB0349491DF3E788002E4031D000003AE3000070B50C460546FEF7D5FBC0B202280E49287804D00E
:4039C000FF2810D04C280CD810E0FF2809D10A4AD0680004800F032801D0087807E09069000A553803E00878207070BD4F382070087070BD4A0D002000002E40F0B50122DC
:403A0000002834D0002932D00424420600D00524792342065B06D21800D0641C034600221EE00C2516466E43124D00277519AF72104F002ABB51696007D0661EB24209D1E4
:403A40000D4E86197606760E05E05E06760E8027BE1B00E080269B198919521C2E81D2B2A242DED303480549006B002288611046F0BD0000B014002079020000540D0020FB
:403A800018B50020694608700A48006900280ED0132149014018047E684604704F21C900054800F05BF8A04201D0012018BD002018BD0000540D00203412002007490020F9
:403AC0000C2242435218927A012A05D0401CC0B20628F5D30020704701207047B0140020F8B50F000446164609D01A4D1A496868A04202D94018A04201D38E4201D90120DB
:403B0000F8BD39462046FEF72FFD002820D0324639462046FEF737FD0E49F0B2012620318E7600210C220B4653430A4A9A1813895568EF18A74207D9641B1B1B96728342D0
:403B400006DAC01A1469C0B2491CC9B20629E9D30020F8BDB014002079020000034610B50020024604E09C5C2018521CC0B292B28A42F8D310BD000070B500F05FF8084CCB
:403B8000064A216907480D46FEF7FDFC05492846FFF734FFFFF774FF207070BD79020000540D002034120020002070470020054A002902D0012902D002E0906000E0D0600F
:403BC00000207047540D002070B5084C154608460549E26889182A46FEF7D5FCE0684019E06028B270BD000034120020540D00203EB50A226946FFF7E7FF044606480A229F
:403C000000686946FEF7B0FC002802D00020C0433EBD20463EBD0000580D0020002802D0044A914201D2FF20704703494A6108610020704779020000540D0020024800216C
:403C40008160C16070470000540D002070B5074C15460548A26880182A46FFF741FFA0684019A06028B270BD34120020540D002010B503490A220968FFF7E8FF10BD0000FB
:403C8000580D002010B50F4A002313600E4A13600E4B18600E4801600E49012008600E490860000290600E490C4808600D4914300860FF381538506000F0BCF800F0CAF947
:403CC000002010BD880D0020700D00209C0D0020A00D00208C0D00207C0D0020F8150020800D0020940D0020014610B50020002910D0094B1A689C685118A14209D25868FC
:403D0000196080188A0704D08A07920F891A091D196010BD002010BD700D0020F8B50024164E671E321F3D463168136806E01422624310328A58521C1BD0641C9C42F6D33B
:403D40006A1C14D02C461422544322460C3288500C214843FFF7C8FF3168002808510AD031680020103408517068401C70602846F8BD2546E4E73846F8BD0000800D002020
:403D8000F3B50026F64381B000281BDB1E490968884217D80299002914D01B4F142204463F1D54432546396810354859401C09D0FEF7BEF938682F1F4159C359994203DB67
:403DC000FEF7B2F93046FEBD214608310091465801590C20704308180C220299FEF7D3FB0948761C001D0068C159B14200D100260549009A091D865008684159491C4151ED
:403E0000FEF792F90020FEBD7C0D0020002803DB07490968884202D90020C043704704491422091D0968504310300858704700007C0D0020F0B500200D4A451E0346171F8D
:403E400050600FE014260146714314680E1DA3510C461668083433511668083435511468401C635039688842ECD30020F0BD0000800D0020F3B50026F64381B0002841DB58
:403E80002349096888423DD8029900293AD0204F142204463F1D54432546396810354859401C2FD0FEF744F93868415900292BD0211D009146580C21005971430F46C119E3
:403EC0000C220298FEF75FFB11480021001D0068761C00590C34C0190160416081600C48001D00680159B14200D100260849009A091D865008684159491E4151FEF714F9BC
:403F00000020FEBD3046FEBDFEF70EF9FAE700007C0D0020FEB504460D4600201E49089E0860471E009001900290002C11D0486885420ED2002A0CD0002E0AD0642E08D80E
:403F400008460C3001681C2068430C18207A002801D03846FEBD0120226020721846FFF7DDFE6060401C13D06681A6810A4827610C3067610179A94200D2057100216846AC
:403F800001810A462846029B00F040F82846FEBD00202072DDE70000880D002038B50124009400F039F838BDFEB50027164EFF433D4600240EE01C20316860430818017AC4
:403FC000002906D04068FFF721FF002801D0254603E0641C3079A042EDDA681C12D01C2130684D434419FEF7A3F869466068FFF741FF0546FEF798F8002DD9D121686846A8
:404000008847D5E7FEBD0000940D002038B50024009400F001F838BD1FB500220C49541E0A60002811DB496888420ED808491C220C31096850430818406801A9FFF7A0FE84
:40404000401C02D0002004B010BD2046FBE70000880D0020F0B50021114A4D1E174611710C3F0B46BD6016E008461C2460431668041D355114680646235014680836A35517
:404080001468361DA353044616680A34335318301468491C255078688142E5D30020F0BD940D002038B500210091002811DB0F49097888420DDA0D4D04010C352968085959
:4040C000002807D0201D0818694600F06FF9002801D0002038BDFEF72BF828680F34015D491E0155FEF720F8009838BDA40D0020F7B582B0002502986E1E06602E48D21CEB
:40410000024017462D4A2C4610460C380178106805E02301C358002B0FD0641CE4B28C42F7D3711C28D03401211D40180191039900F02AF900281FD101E02646F1E71F485B
:40414000016820460C300F521C480399026820460E30115419480399026820460F3011540398784300F0A0F8144900280968085102D00024009011E001251AE00F4801686B
:4041800001980818009900F02CF9002801D0012502E00098C0190090641CE4B203988442ECD3002D05D10298066004480179491C0171284605B0F0BDFCFF0000B00D002018
:4041C000F8B50D4600216A468C461180002839DB23490978884235DA214B04010C3319680A59002A2ED020460C300B5A801C0E5C184670438018954224D3854222D200206E
:4042000006E007465F43BF18AF4206D0401CC0B2B042F6D36046002814D0114E271DC8190C366A46294600F006F900280AD168460088012808D030682946C01900F0D1F829
:40424000002803D00120F8BD0020F8BDFDF770FF30680F34015D491C0155FDF765FFF3E7A40D0020F8B50F46002400F031F8002817D10C4900220B460C334A600EE021012E
:404280001D680E466A501D680C36AA53B61C1D680F31AA551D68641C6A54E4B2BC42EED31A71F8BDA40D002000280BD0C01C074A81085068890053884118994203D8936809
:4042C000516018187047002070470000A40D0020F8B5064600200F4D009029700C0121466846FEF7FDFB00280CD129460C3100980860301B001F84B221466846FEF7F0FB8B
:40430000002801D0FF20F8BD6C800098A8600020F8BD0000A40D0020F8B5002827DB19490978884223DA174C05010C342168485900281CD028460C30085A009028460E30CE
:404340000E5C401C0E5420682F1DC01900F064F800280CD12068002445590EE0094829460C300068C01900F03CF8002801D00120F8BD00982D18641CE4B2B442EED30020E5
:40438000F8BD0000A40D002030B50D4604000BD0A800FFF789FF6060002805D000202570C0436080002030BD012030BD70B50D46040005D0002D03D00220205E002801DAD6
:4043C000012070BDFDF7B4FE0221615E60688900405828606088401E6080FDF7A5FE002070BD70B50D46040007D0002D05D002212078615E401E814201DB012070BDFDF75E
:4044000097FE6088401C00B26080616880000D50FDF78AFE002070BD10B5040009D0227800216068FEF7B8F80020C0436080002010BD012010BDF0B500231D46002802D0D5
:404440000224045F0AE00120F0BD46689F00F6598E4201D1012503E05B1CDBB29C42F4DA15700020F0BD00000148007870470000B80D00207CB505460024FEF7C5F8A879E2
:404480006946087000A8062229460130FEF77BF80021684604F0C2FF0C2806D0072806D01F2806D0122806D006E0022404E0042402E0272400E0012420467CBD10B5022865
:4044C0000BD0032802D0042809D102E000F076F905E000F021FAFF2801D100F031FAFFF7EDF9FFF7F1F910BD10B500F059FAFFF7E5F9FFF7E9F910BD70B504460025FEF706
:4045000083F8002C06D0A079012803D8214602F0E5FD00E00125284670BD01460120002902D05020088000207047000001460120002905D0034854220078504308800020F9
:4045400070470000BA0D002010B502460D49FE204870032410460DF06FFD002810D10DF013FD00280CD105F045FD002808D100F027FC002804D105F0F7F9002800D1002419
:40458000204610BDB80D002002480021018280210180704700102E4070B50025044600280ED0A07901280BD8FEF72EF8A0790028204602D003F072F903E003F047F900E0F7
:4045C0000125284670BD0000014610B50120002904D006220248FDF7D6FF002010BD0000C40D002001460120002903D0087802490870002070470000BA0D00200148007A8F
:40460000704700003417002038B504460120002C20D0617801291DD800290BD0FF25E535FDF7F2FF0C4828180088C0B22070072803D00EE0FF25CD35F2E700206946087071
:404640006846FFF755F969460878012801D108202070002038BD000000102E40014A002192681047B80D002008B500226B461A7026280CD0094A342852680BD0352805D176
:40468000900703D50021352005F090FD08BD19462620F9E7D007F9D03420F5E7B80D0020014908727047000034170020F8B504460120002C26D06178012902D92278092AC9
:4046C00020D8002905D0FF25E5352078092803D004E0FF25CD35F8E708202070FDF794FF2078114F114E08280DD00020FFF742F970780128207810D00D4969180880FE2007
:4047000070700020F8BD0120FFF734F90720B8810549203188800120F2E7B8810248217820308180EBE70000C0112E40B80D002000102E4070B50E46050001D0002400E04B
:404740000C4C002C11D0E28A500609D5D107C90F022003F041F9E08A40218843E08204E0D107C90F012003F037F93146284602F011FE70BD94160020F8B505460020044626
:404780000D4E009013E022466946284601F00CF90098002801D00DF031FCA878214602F0DBFBA878214602F0C9FB641CE4B2308AA042E8D8F8BD000060170020F8B54E4C54
:4047C000FFF77CF8012847D14C480078002843D002F068FD00283FD004F0C2FA00283BD0474E7078C00703D000F01CFD012833D0307E00287DD17078002500285BD000077F
:4048000006D540488089070B00F02EF9384370D13B484178684604F0E9F8217A3A4CA2788918C9B2814262D802F03CFD002860D0344860300789324E203602F07DFB684607
:40484000008802F0A7FB02F043FC30490988884203D10120FFF768F84BE02D49012008702748807B00281DD0002F1BD04036F07E002817D123486030008821494000C031E7
:40488000498981420AD26078002807D103F0D2F82049088A03221202104308822078002800D0257002F0ACFB0120FFF737F800F025FC174C15E002F0F5FC002819D010244C
:4048C00002F006FC214602F0EFFA02F063FB104C0120207002F094FB0020FFF71FF800F00DFC20780128B4D1FEF7B4FF25700020F8BDFF20F8BD000068160020480D00203F
:4049000074160020A0102E40DE0D0020F00D0020CA0D0020E0112E4010B50848FF244078002809D102F0BEFC012805D1FEF7A0FE0720FEF7F9FF0024204610BD74160020EC
:4049400038B5FEF7BBFF012801D0002038BD02F0A9FC00280AD0114C6078C00703D000F061FC012802D0207E002801D0FF2038BD617800290FD0684604F038F8022806D975
:404980006846008802F006FB012002F043FB0320FEF7CAFFD9E70020F7E700007416002038B51E4CFEF78AFF042813D0052811D0062812D003282AD007280AD10020694634
:4049C000087002460120FEF771FEFEF777FF0128FBD138BD00F0B2FB38BD02F033FB00F0ADFB02F0AFFB8007800F0228F4D10C4841880029F0D05B21095D0029ECD1012142
:404A00000170A07D0140022002F0E6FF38BD02F01DFB0120FEF788FF38BD000094160020DE0D0020F8B50646002403F043F80546304603F059F803460A480021068A0DE0BF
:404A400001228A401046174628401F40002803D0002F01D1224394B2491CC9B28E42EFD82046F8BD6017002070B500252C460A4E03E0002C01D0002000E0304600790028F4
:404A800003D02046FFF7CEFF0543641C2406240EEFD0284670BD0000941600201CB50020694648706846FFF7AFFD01AA69460A20FEF7FCFD6946042008561CBD70B50D4616
:404AC00001F058FB04000BD02079002808D0FDF79BFDE178A0782A4602F0E2FC002070BD022070BD0148007970470000681600204030C07E002800D00120704700B500F0E7
:404B000001F800BD902148430749084A40186030417F491CC9B24177D289914201D300214177C8B270470000741600206017002013B501F01FFB04000BD001F0BCFE0028CF
:404B400007D0214601AA0A310620FEF7AFFD00201CBD02201CBD000010B50C4601F00AFB00280AD001F0A7FE002806D0224604490A20FEF79BFD002010BD022010BD00006B
:404B800055160020F3B581B0074601460026029802F088FF0446002F01D0002500E0154D002D21D0284601F01BFB032C04D13946029802F0D3FF06463846029902F0BEF991
:404BC000032C06D0002C10D00121384601F00EFC03E03146384603F0C7F9284602F09CF80221284602F0B2F8FEBD3846029902F0A5F9FEBD9416002010B5044600F066FA15
:404C0000002804D103F086FE002801D00C2010BD2078611C02F04AFDFF2801D01F2010BD02F090FDFF280AD02178621C02F00EF9044821780068026B601C904710BD07202B
:404C400010BD0000040E002010B503F063FE002801D00C2010BD02F00BFD03480068C06A8047002010BD0000040E002070B50D46044610210DF002F91021601806460DF090
:404C8000FDF8334610221946204603F071FE102130460DF0F3F802202870204604F09AFD70BD0000F8B504464078217802028006870FE0781143A67809050002090D064325
:404CC000084601F057FA00210546F2B2002812D0002C10D0022F0ED0032F0CD0002A0AD00279092A07D0002A05D0134A5A23527F1B5C9A4207D82889002104F0A0FC2046B4
:404D00000DF07CF9FF21002914D10C48224600682946436930469847C0B2FF280AD128464030817EF2B2491C8176FF232146284600F0E3F8F8BD000028160020200E0020CB
:404D40000020704710B5044603F0E4FD002801D00C2010BD2078611C02F0A8FCFF2808D002F0DCFB044821780068426B601C904710BD1F2010BD0000040E002010B500F007
:404D80006BF904F0F1FD002010BD10B5044600786178E2780843A17811430843217908436179084305D003F0A7FD002803D00C2010BD122010BD204602F070FD002010BDE8
:404DC00010B5FDF7CDF902F097FE044803F006FF02F0AEFB012000F003F810BD3C160020F1B586B003A8009005A8019028489F22017B114001736846FDF720FC002845D1C0
:404E000069460989C90705D0224806990068C2686846904769460989890706D5002835D11D480068816A0698884700282ED11B4E0025757075737571F5753576757675751B
:404E4000B570F570B5713746F5730120D03738731F20F880FF2130467972A0300176457600F0EAFA00242046069901F0CFFC002803D1641C2406240EF5D0FD720749BD724C
:404E8000B573C0310D704D704D600D7207B0F0BD28160020200E0020040E00207416002070B505460E46084602F004FE0446304602F01AFE0121A9400A46224001400A436C
:404EC00001D0012070BD002070BD10B50446084602F00AFE0121A140014201D0012010BD002010BD10B5FEF7E9FC032804D102F0ADF80120FEF718FD10BDFEB51C4616465E
:404F00000F46054601F008FFA878FFF7F7FD02460190334639460094284600F00DF8002808D1A8780199FFF705FCFF2C02D138460DF064F8FEBD0000FFB585B005460E98EB
:404F40000C46FF2810D02B49C00009680A5840180179C0795278814201D9012601E09006860F6846038108E06078A1788006860FE0780002014368460181284601F0A6FC37
:404F8000070007D021462846079A00F0A1FC384609B0F0BD304600F04FFD04AE0346039002AA29460096204600F0DBFB3C20405D002818D0284601F089FC012813D0684668
:404FC00000890096C0B20190A878231DFF22079902F094F968460089039BC2B2A878079902F0D8FCD3E7684600890021C0B20091E9E700001C0E0020F8B500260025304683
:40500000FFF710FD07001DD090201149704340186030447F12E0601CFDF78AF9CCB23846E040C007C00F07D02146304601F07CFF21463046FFF7A6FD6D1CEDB20548018AE4
:40504000A942E8D8761C3606360ED7D0F8BD0000741600206017002010B502F069FA0020FFF7BEFE0DF060F8002010BDF8B5002400F0D2F80123012800D10124104F00205B
:405080003E4620360425082203E0002801D0002100E031460979002907D001290BD002290BD0114681402143CCB2401C0006000EEBD07C70F8BD1C43F7E72C43F5E7000094
:4050C0007416002010B5FFF7D1FF10BD10B5044604F09CFD002802D1601C00F001F810BD1CB500240094062269460194FDF73CFA002800D1122420461CBD000070B50E4CD9
:40510000FCF70BFE0546FEF7D9FB062802D02078012803D02846FCF704FE70BDFDF770F82846FCF7FEFDFEF7C9FB0628F5D020780028E5D170BD0000CA0D002010B5FCF785
:40514000ECFD0446FEF7BAFB012809D0FEF7B6FB022805D0FDF754F82046FCF7E2FDEEE72046FCF7DEFD10BD10B50B4681791943817103D08078114602F0DAFB10BD10B584
:4051800082798A43827102D1807802F0E5FB10BD30B50C4C0220A28A0B4B9978002901D0022906D11D785B78EB18282B01D9032002E0032900D101205105490DC00201436F
:4051C000A18230BDC0112E40D40D002000B500F029F8002807D0012805D0032801D0042801D0002000BD012000BD014600B50020C90701D000F010F800BD014600B500205A
:40520000C90701D000F008F800BD00000148006870470000CC0D002001480088000A704720102E400448008B410501D5042070474007800F7047000000102E4001484068C5
:4052400070470000CC0D00207CB50446002568460570200610D5FFF7E5FF01280CD101A801F004FF6846007900F036FB012001F0BBFD0220FFF726FF600712D50C480179C8
:4052800001290ED10571684601F0F0FE6846007800F056FB0220FFF715FF00212620FFF7E3F9044800680169204688477CBD0000D80D0020040E002010B501460A4A00787B
:4052C00000241070FFF7A8FF0128084603D002F051FA204610BD00F0E7F80400F9D1034801210170F5E70000D40D00203417002070B50446FFF790FF002801D00C2070BDAA
:40530000A27B01211F48002A827801D00A4301E05208520082706279012A14D0C17849084900C170184D2868016820468847207901280CD06188208803F09AF82080207998
:4053400004280FD015E0C2780A43C270EAE72868C168E01D8847E01D02F08CFA0B48008D208006E02868C168E01D8847E01D02F081FA074920798870204602F009FA0020F8
:4053800070BD000074160020040E002028160020D40D002008B50178FFF73EFF814201D10C2008BD002914D0072069460870FFF70DFF012807D10121684600F0E5F8012872
:4053C00001D0092008BDFFF7E3FE02F015FA012011E0FFF7FBFE012806D1684601F046FE6846007800F0ACFA02F0FCF9FFF714FF0028FBD10220FFF765FE002008BD000032
:4054000010B501460A4A007800245070FFF704FF0128084603D002F06BFA204610BD00F065F80400F9D1034801214170F5E70000D40D00203417002038B568460CF074FD5A
:40544000002801D01F2038BD01210098C90201804180002505714571857107214173857302F096F9009C202200212046FDF794F825702A460021601CFDF78EF8204602F043
:4054800079F9204602F034FA00980CF0B7FD062200210448FDF780F802480C388560002038BD0000D80D0020F8B5044600250D4800950078012806D068460CF035FD00289D
:4054C00003D007250CE00C250AE0074E009830602278611C401CFDF756F83168207808702846F8BD34170020CC0D0020F8B5044600250D4800954078012806D068460CF0DD
:4055000013FD002803D007250CE00C250AE0074E009870602278611C401CFDF734F87168207808702846F8BD34170020CC0D00200346084800B5834209D8184600F01AFE13
:40554000002804D00089984201D1012000BD002000BD0000FF0E0000074A9179491C8906890E917138220A4092014907090E1143084302490840704774160020FF0E00000C
:40558000C006C00E70470000F8B507460E4600240D4803E0002C01D0002500E005462979002905D0641C2406240EF3D00020F8BD0021204601F02AF92E712046FFF7CCFF34
:4055C00028813C700120F8BD9416002010B503F003FA0222002100F003F801F055FF10BD10B5094B40074907000F090F185A595A40185043C0086421FCF79AFE002800D107
:40560000012080B210BD000020440100F7B53D20405C88B015460C46002802D02878042802D200200BB0F0BD6946087200262046FFF75EFA012800D00126204603A938309C
:405640000191009023460327A17E34333246206A03F0DEFA02A8089900900B46019120463A4603A9243003F063F902466846007A2870204601F0B6F81046D3E7FFB587B027
:405680000C4605461078694608723D20005D1746002826D000262046FFF72AFA012800D00126204603A93830019100902346A17E34333246206A03F0ABFA02A80090291DFC
:4056C000019120462B1D03A924300A9A03F030F902006846007A388002D1204601F082F810460BB0F0BDF0B505463C20405C89B016460C4600280CD0307869460873002899
:4057000006D000272046FFF7F3F9012803D003E01F2009B0F0BD012703200890204604A93830019100902346E17E34333A46E06903F06EFA6846007B03A928180290009195
:4057400020462B46019504A92430089A03F024F902466846007B3070204601F04DF81046D7E7FFB505463C20405C89B016460C46002810D0084601F0A9F801280BD03088C6
:4057800069468883002809D000272046FFF7B0F9012805D005E000200DB0F0BD0220FBE70127204603A93830019100902346E17E34333A46E06903F02BFA291D2B1D07A880
:4057C000129A6D4607C5204603A924300C9A03F0E3F802466846808B3080204601F00CF81046D9E770B50D460446FFF781F901280AD0E87AA97A00020143A07801F030FD4C
:40580000012808D0002070BD00222421204602F081FD242070BD28214C200155204600F0B1FB282070BD0000002801D0002000E003484030C07F012800D000207047000027
:40584000941600200146002049070ED50021084B03E0002901D0002200E01A461279022A04D0491C0906090EF3D0704701207047941600200146002049070ED50021084BD1
:4058800003E0002901D0002200E01A461279022A04D0491C0906090EF3D07047012070479416002010B5044680346068002803D00CF0B8FB0020606010BD403041707047BD
:4058C0004030817070474030017070470171704792001018C166704770B53C2501F09CF9040004D020460021433001F059FCFF222946204600F0E8FB002C02D0A07801F043
:405900000DF970BD10B5002801D0002000E00348002802D0008903F0D9FE10BD9416002010B5002801D0002000E00448002804D00179072901D100F047F810BD94160020FF
:4059400010B501F069F9002802D0807801F0E6F810BD00207047000070B50546008A00281ED01049F122097B1140C90618D5294640314A8A098A521C4A4392B2D10800D16D
:405980000121540801E0621A94B2A042FBD9FEF76BFD012804D1298AA878224601F036FD70BD00002816002010B50023054C0B60248A944204D992001018C26E0A60C36649
:4059C00010BD00006017002038B5044600200090A079002814D14020015D052901D00E290ED168460CF0B0FA002809D12046009902F06EFC03481021428B2046FFF7B4FB5E
:405A000038BD00002816002010B50B4604460146184602F0D7F8002802D020460CF0F8FA10BD13B5044601AA11460620FDF73EFE6846818861811CBD002800D10220704784
:405A400070470000F8B504462346401D543300909A1EA078911E01F025FB25464035A88A298A8000FCF764FC401E81B2688A884203D96982A07801F0E9FF698A8C2001517D
:405A800020460021433001F08BFB27480088E88102F0A2FFE989891C8AB26179FFF7A0FD01F0F2FC02F098FF2A8A6179FFF798FD074601F0DDFC688A002806D01B49088A44
:405AC000032212021043088202E0002001F0B2FF1648803801886E8A002E0CD0304648431349FCF70FFD0004000C01D0401C80B21049488002E00F4800214180288A7043DF
:405B000081B2A07801F002FFFF2228374932B9B21346204602F0B0FCE98AA07801F076FEA07801F02BFAF8BD80102E40E0112E4071020000DE0D00207FB5044680346168BC
:405B400005460E46183108226846FCF71CFD31462031082202A8FCF716FD102168460CF08DF96068102108300CF088F960682B46083024331022694602F0FAFE7FBD10B514
:405B800004460821FFF7FBFA10212046FFF7F7FA207905281FD006281DD008281AD12189002003F00BFD072020712046FEF7A0FF014620464030012913D00E2101700021BC
:405BC0000176204600F0BCFF2046FFF76BFE2046FFF7C2FE10BD20890122002103F0D2FCE1E70521EAE70000FFB581B01F4604460821FFF7C4FA10212046FFF7C0FA2079B1
:405C0000082803D0092804D0042203E00422012501E009220025204600F044FE264600204036307022712046FFF73CFE0398002D02D0012808D00BE001280AD1208900221E
:405C4000029903F09FFC04E02189029803F0B6FC012700203076012F04D0204600F070FF05B0F0BD02983073204602F07FFB054605480121428B2046FFF776FA002DEFD1C6
:405C800009202071ECE700002816002070B50C460546FEF72DFF012809D108212846FFF76EFA0023012221462846FFF79DFF70BD10B5044600F0F6FD2046FFF7F3FD0021E5
:405CC0004034217010BD70B505461A24FEF710FF012809D108212846FFF751FA0023012221462846FFF780FF70BD0000F8B50446002000900E4668460CF026F9002801D0CB
:405D00000D20F8BD8420005908212030009D00F02CFA20460421383000F027FA002E02D1204600F0FBFD2946204602F05CFA0E480821428B2046FFF717FA204600F071FF69
:405D400025464035002808D0204600F023F8002801D0092028700020F8BD08202870204600F0DAFFF7E7000028160020014610B540310A460978082906D0092907D00A2987
:405D800001D100F091F810BD0B20107010BD00F001F810BD70B50446007925464035052805D0062803D008280FD00C2070BD03220621204602F0AEFA0D480821428B20466D
:405DC000FFF7D2F91120287010E006202873204602F0CCFA0646AA8A0A20424301212046FFF7C2F9002E01D109202071002070BD2816002038B504460020009068460CF0EC
:405E0000A3F8002801D00D2038BD2046009D00F0C3F908202071204600F080FD2946204602F018FA00213D2001550F2040210855204600F071FF002038BD00B5024600F00F
:405E400031FD10214032117000BD10B50446FEF74FFE012809D04020005D112805D100231A4606212046FFF7BFFE10BD10B5FFF786FE10BD38B504460021684600910CF0C5
:405E800063F800280CD12046009902F064FA05480821428B2046FFF767F90D204034207038BD00002816002038B504460021684600910CF049F8002801D00D2038BD20465B
:405EC000009902F03DFA05480821428B2046FFF74BF90C2040342070002038BD2816002000787047F8B5002569460D70002801D0002400E01F4C002C18D0204600F0DBFC84
:405F0000002813D0207903280BD005280CD026464036B18AA07801F003FDB078012806D01DE0042020711DE006202071F8BD0021204601F064FE274680373868002802D0AE
:405F40000CF070F83D600020B0702079072802D12046FFF701FD0221204600F0F7FE20790428E3D1207A694608703420FEF77CFBF8BD00009416002010B54C22115400F07C
:405F800052F810BD10B50446FF21FFF7F8F809202071A07801F0EAFC10BD000038B5FF216A461180002801D0002400E00B4C002C12D011460620FDF779FB6846018820460D
:405FC000FFF72FFD204600F087FC002804D104480068C1692046884738BD000094160020200E002010B504468079002809D022214C200155FF212046FFF7C1F8204600F0F0
:4060000012F810BD10B5037902464032002B03D01173092B02D003E0002100E02221117300F001F810BDFEB504460089002700902781207926464036002817D0012815D028
:4060400002280AD112E002AA01A9204601F0A8FD002807D101980BF0DBFF204601F0C8FD0028F0D02046FEF787FBB776254680352868002802D00BF0D5FF2F60686800285B
:4060800002D00BF0CFFF6F60317B002919D0009800F064F8A078002100F092FF2046FFF795FAA07801F0C6F8A07800F037FDFF212046FFF764F80B20FFF704F800F068FCE3
:4060C000FEBD1F213173E2E7F8B517460E46054602F07EFC04003CD020460C3001F050F82046062200211830FCF756FA2046062200211230FCF750FA164822460068394623
:40610000436A28469847074626702846FEF7F0FC012148406070002D10D02889608028464030C1782171002E0FD169796171018AE180418A2181808A608106E00648008BAD
:40614000C005C00F2071002060803946204603F0B8F9F8BD040E002000102E400A4610B50146002003F0CAFA10BD10B50BF062FC10BD000000B50146FFF702FA002801D03A
:40618000002000E00348002802D002898A4200D0002000BD9416002038B5044680346068002806D168460BF0DFFE002801D100986060606838BD000010B5014600F086FB08
:4061C0000128887802D0FEF79DFC10BD90214843024940186030007F10BD00007416002070B5054604464035A87F012811D1A1789020084A484380186030067F3046FEF7C5
:406200004FFE002805D10220A877A078314601F0CBF870BD7416002010B50C4CA07A002813D0FEF7E9FE0A48027F417F408B00F0B7FB012809D10020A07200F02DFF0549FB
:406240008989090B01D000F03BFA10BD4417002074160020A0102E4070477047490510B5490F0B00FCF79EFB060704080C0C0F073E21FFF781FE10BD0821FFF7C3FE10BDED
:40628000FFF7D1FE10BDFFF7ADFE10BDF8B507460025002D01D0002600E0204E00F0A6FE3046403044890021418100F0C3FE304600F001FB01282BD1A00702D52846FFF709
:4062C00011FEE00602D52846FFF768FEA00601D5FEF792FE600601D500F014FB200602D5284600F01DF8600702D5284600F02CFA380402D52846FFF713FB780402D5284654
:40630000FFF700FBE00703D021463046FFF7A6FF6D1C2D062D0EBCD0F8BD000094160020F8B5002801D0002400E0284C002C4BD025464035A878012846D1FF278820493745
:4063400000593E46002805D02149097B890601D5878AC68A2046FEF7CBFB012834D002F03BFB2A8A6179FFF73BF9009001F080F800983346283081B23A46204602F07CF880
:40638000E98AA07801F042FA12480188688A124E002810D048431149FCF7B4F80004000C01D0401C80B27080A07DC107C90F002001F012FB01E000207080288A698A484309
:4063C00081B2A07801F0A2FAF8BD0000941600202816002060112E40DE0D0020710200000149096809680847200E002070B50D460026194A0146002801D0002401E0144622
:406400002034002C26D0204600F060FA01280AD19020484380186030007FFEF741FD002801D101F023FF0D48006881692046884700280CD020464030817EA94202D3491B37
:40644000817600E086762089294603F0F8F8204600F062FC70BD000074160020200E002070B503460088FFF785FE040013D000F022FA00280FD02079092819D025469978DD
:4064800040352973204601F071FF0646A878012803D0AA8A02E0022070BDEA880A20424301212046FEF760FE002E01D109202071002070BD0EB5002217216B460292198138
:4064C00000905A810120029B00990BF04BFE0EBDF8B518480024807A002822D1164E0025B089000B22E0204600F074FE1249A039401807882A462146384600F051FA01281A
:4065000010D00E480122478305770A4944778A72002D01D0002000E02030002801D000F0FBFBF8BDB089000B641CE4B20028DAD1F8BD000044170020A0102E4074160020AB
:4065400010B50088FFF716FE002809D0014640310C460978082905D00B2903D00C2010BD022010BDFFF716FC002801D009202070002010BD70B503460088FFF7FBFD0400B4
:4065800008D0254640352878082805D00B2803D00C2070BD022070BD8420005910220830991CFBF7F0FF2046FFF7C6FA2878082804D02046FFF778FC002801D00A20287088
:4065C000204600F0A9FB002070BD000010B50C46002121700088FFF7CDFD03000BD000F06AF9002807D00948F121007B0840C00603D4112010BD022010BD022020701A8A0D
:406600001889002103F096F8002010BD28160020F8B50F46002100910088FFF7ABFD040012D000F048F900280ED0E079410641D4617E02264A07002A08DB8907402500299D
:406640001ADA2843E07135E00220F8BD02F0C0F90021017021894180A1898180217E4170E189C1803E7005460178134802F03CFD284603F003F81DE0204600F02DF90128BA
:4066800006D068460BF060FC002803D00720F8BD2A20F8BDE07900992843E071204601F08FFE607E0421304360760448428B2046FEF75AFD0020F8BD1D040000281600202C
:4066C0003EB500220F236C460292238100910190628169460EC900200BF044FD3EBD0000F8B50F46054600F097FA040025D003202071254600264035EE76E6702046FFF7F0
:40670000A1F901F06FF80920FEF7DCFCA07800F07FFD0121204600F019FB2E706E70AE703A4600212046FFF7CFFC0649887B401C8873A078FFF754FEF8BD284601F016F9D3
:40674000F8BD00007416002010B5002801D0002000E0094800280DD0014640310A464978022901D100215170807DC107C90F002001F032F910BD00009416002070B5034620
:406780000D460088FFF7F6FC04000BD000F093F8002807D01248F121007B0840C00603D4112070BD022070BD20464030418A008A491C41430804C10C5888884201D21220A8
:4067C00070BD20822079072802D12046FFF7C4F8022028702089002102F0D4FF002070BD28160020016A491C016204D1817E491C4906490E81767047C169491CC16104D1DD
:40680000C17E491C4906490EC1767047F0B5074687B003A8009005A800260D460190002F01D0002400E01B4C002C05D06846FBF705FF002803D00BE0022007B0F0BD6846DB
:406840000089C00704D1902200212046FBF7A4FE114829460068826820469047050016D1A77066762746267140373E70204600F019F8204601F0B8F9084820820848BE77E1
:40688000007BF121084000D001202075E682E8B2D3E7000094160020200E0020B80B000028160020002101628176C161C17620300177417770470079002805D0012803D00B
:4068C000022801D001207047002070474030807F002800D00120704740300078002807D0012805D0052803D00E2801D0012070470020704710B5807801F0F6F8002800D080
:40690000012010BD10B500F0C7FB03498989090B01D0FFF7D5FE10BDA0102E4070B5054604464035A87F002825D1FF206075A0789021154A484380186030417F9023491CE0
:40694000C9B24177A0785843104B8018DB896030994201D300214177A0789021484380186030467F0677A1783046FEF799FA002802D00120A87770BD0220A877A0783146B6
:4069800000F012FD70BD000074160020601700200020401C0006000EFBD0002070470000F0B515468207920F85B0000A02926A469080002D01D0002400E0564C002C28D0B3
:4069C000084600F007FC07466846808800280BD00298012843D0022841D003280BD03D20005D012879D08FE04B48381801882046FFF717F888E00020029002A80BF084FA8A
:406A0000002807D03D20005D012802D12046FFF7E9FE7CE06846029E8388324600213846FCF738FD3C48381801882046FEF7F9FF284600F0B5FA01AA21463046FEF7E6FD4D
:406A4000002806D030460BF0CFFA3D204C21085531E0F5773146204601F02EFA57E0002000902089039068460BF03EFA002802D0002005B0F0BD6846009E8388321D0021FD
:406A80003846FCF707FD2448381801882046FEF7C8FF284600F084FA2046FFF70CFF002805D025464035287E002810D107E030460BF090FA2BE02046FFF764FA27E001AAD2
:406AC00021463046029BFEF7D9FD002806D030460BF080FA3D202873EDE712E00298FEF7AFFF0399317003990001090A0143717068468088B070000AF0703046FFF7DAFCD9
:406B000005E02046FFF76EFE284600F049FA0120AFE700009416002000102E4010B5074A917B002901D0491E91730021FFF76EFE002801D0002010BD012010BD7416002080
:406B4000F8B5074606464037B87F00282DD0B078902100904843234945186035287F0099FEF7B3F901281ED0287F401CC4B21E48C089A04200D800240020B877FF276F7751
:406B80002F77A87702460146009800F07DFD717DFF2903D0304600F0E8FF777501F066FB0025114F19E00320B877F8BD00200090224669463046FEF7F7FE0099002904D0C9
:406BC000FF231A463046FEF798F9641CF889E4B2A04200D800246D1CEDB2F889A842E5D8F8BD0000741600206017002010B502460021084B03E0002901D0002000E01846A0
:406C00000479944204D0491C0906090EF3D0002010BD00009416002000B50120FFF7E6FF00BD10B5044601F0D3FE2189018080346168416061682831816002F0D9FC10BD09
:406C4000F7B50646087982B00C46092807D0A078F0770846FFF73AFE012806D010E030460BF0D6F9022005B0F0BDA1789020294A484380186030007FFEF712F9012810D0EA
:406C8000A078FEF7D1FD01280BD037780121304601F094FA25462035062F38D00B2F0FD107E06846027C21463046FEF7ADFE0D20D9E72046FDF71CFF012801D1002028776C
:406CC0002046FFF779FA054604AA21463046FEF70AFD01205F2108556946097C002001910090A07833463A46294600F007FB69460A7CA0780323294600F04CFEA07829466A
:406D0000FDF718FD30460BF083F90020ABE70120D5E700007416002010B502464032937F0021002B03D1927E002A00D00121064A927A002A00D000210279092A00D101212F
:406D4000807800F069FE10BD4417002070B50C460546FDF7CDFE00280BD1012C06D92879092806D02846FFF7C5FD0446002C02D004E0012402E0A87DC007FAD1A87DC10746
:406D8000C90F204600F028FE70BD0000012807D0082804D104480282034808300180704701488038FAE70000A0102E40014908817047000000102E4010B50446FF20F1306B
:406DC000012C01D1FF20D530002200F057FE044A108A044980B2A0430880108210BD000000102E40E20D0020034B198A034A89B2814311801982704700102E40E20D00209E
:406E000010B50446012802D0082C07D102E0FF20D53001E0FF20F13000F028FE0348018A034A89B221431180018210BD00102E40E20D0020034B198A034A89B20143118081
:406E40001982704700102E40E20D0020F8B505460120A84086B214460F46012231467C2000F00CFE3A463146782000F007FE6078267800020643E078A27800020243607944
:406E80002379000203430C2045430D2080010549281844182680001D44182280001D40180380F8BD00102E40401880B270470000CB065B0E0343480901021943D001084329
:406EC0000121C902084301490881704780142E404278037812021343084A1382C37880781B021843908248780B78000203431383C8788978000201439183704700142E4096
:406F0000024A1080000C90801181704700142E40044A002180180288491C89B21029FAD37047000000102E40024A10820148803081817047A0102E407047000010B5054AA9
:406F40001082084600F0BEFD024A0021A03A8018018010BDA0102E4010B50B46044600F005F819462046FFF7DFFF10BD024A10820148803001817047A0102E4010B5044948
:406F80000882FF20002220211D3000F077FD10BDA0102E400149088070470000C0102E40000202494D3008807047000000102E400249888A0422904388827047C0112E4085
:406FC00010B5084B074C0202A03B0029208202D075321A8010BD04490020088088807632F7E70000A0102E40201A2E4000B5034908884880FFF7F8FE00BD0000E20D002042
:4070000010B50120FDF74CFB01495020088010BD00102E4006490E220028888806D01043888003495120C039088070479043F7E7C0102E4000B502484088FFF7FBFE00BD63
:40704000E20D002010B5FCF723FC10BD014952200880704700102E40884201D8081A03E00022D243101A401880B2704700210170704700000748808806492039098B8842F4
:4070800001D8081A03E00022D243101A401880B27047000020112E400148008AC0B27047A0102E4070B5084C049D2082074804890548603006880E8001891180808818804B
:4070C0006007400F287070BDA0102E40E0112E400148008970470000C0102E4000280FD00D4A108B0870000A4870908B8870000AC8700948203000880871000A487170472D
:40710000064A10880870000A487090888870000AC8701089F0E7000040102E40C0112E4000B5024A00F004F800BD0000FF7F000000B51346FFF790FF984201D8022800D204
:40714000002000BD0148008A70470000001A2E40024908820248008970470000A0102E40001A2E40014880887047000020102E40024908820148803000887047A0102E404A
:40718000064B1A8999891B8A0270120A42708170090AC1700371190A4171704760102E40012904D00549098BC90B017070470349403109898907C90FF7E7000000102E40D2
:4071C000024908820248008970470000A0102E40201A2E40014840897047000060170020024908820248808970470000A0102E40001A2E40044A108204480289808948433A
:40720000101880B270470000A0102E40601700209021074B414300B5C918FF2260314A770A7700228A77114600F02EFA00BD00007416002090225043074A10B58018FF216B
